{
  "abi": [
    {
      "type": "fallback",
      "stateMutability": "payable"
    },
    {
      "type": "receive",
      "stateMutability": "payable"
    },
    {
      "type": "function",
      "name": "_getInitMSACalldata",
      "inputs": [
        {
          "name": "$valdiators",
          "type": "tuple[]",
          "internalType": "struct BootstrapConfig[]",
          "components": [
            {
              "name": "module",
              "type": "address",
              "internalType": "address"
            },
            {
              "name": "data",
              "type": "bytes",
              "internalType": "bytes"
            }
          ]
        },
        {
          "name": "$executors",
          "type": "tuple[]",
          "internalType": "struct BootstrapConfig[]",
          "components": [
            {
              "name": "module",
              "type": "address",
              "internalType": "address"
            },
            {
              "name": "data",
              "type": "bytes",
              "internalType": "bytes"
            }
          ]
        },
        {
          "name": "_hook",
          "type": "tuple",
          "internalType": "struct BootstrapConfig",
          "components": [
            {
              "name": "module",
              "type": "address",
              "internalType": "address"
            },
            {
              "name": "data",
              "type": "bytes",
              "internalType": "bytes"
            }
          ]
        },
        {
          "name": "_fallbacks",
          "type": "tuple[]",
          "internalType": "struct BootstrapConfig[]",
          "components": [
            {
              "name": "module",
              "type": "address",
              "internalType": "address"
            },
            {
              "name": "data",
              "type": "bytes",
              "internalType": "bytes"
            }
          ]
        }
      ],
      "outputs": [
        {
          "name": "init",
          "type": "bytes",
          "internalType": "bytes"
        }
      ],
      "stateMutability": "view"
    },
    {
      "type": "function",
      "name": "entryPoint",
      "inputs": [],
      "outputs": [
        {
          "name": "",
          "type": "address",
          "internalType": "address"
        }
      ],
      "stateMutability": "view"
    },
    {
      "type": "function",
      "name": "getActiveFallbackHandler",
      "inputs": [
        {
          "name": "functionSig",
          "type": "bytes4",
          "internalType": "bytes4"
        }
      ],
      "outputs": [
        {
          "name": "",
          "type": "tuple",
          "internalType": "struct ModuleManager.FallbackHandler",
          "components": [
            {
              "name": "handler",
              "type": "address",
              "internalType": "address"
            },
            {
              "name": "calltype",
              "type": "bytes1",
              "internalType": "CallType"
            }
          ]
        }
      ],
      "stateMutability": "view"
    },
    {
      "type": "function",
      "name": "getActiveHook",
      "inputs": [],
      "outputs": [
        {
          "name": "hook",
          "type": "address",
          "internalType": "address"
        }
      ],
      "stateMutability": "view"
    },
    {
      "type": "function",
      "name": "getExecutorsPaginated",
      "inputs": [
        {
          "name": "cursor",
          "type": "address",
          "internalType": "address"
        },
        {
          "name": "size",
          "type": "uint256",
          "internalType": "uint256"
        }
      ],
      "outputs": [
        {
          "name": "array",
          "type": "address[]",
          "internalType": "address[]"
        },
        {
          "name": "next",
          "type": "address",
          "internalType": "address"
        }
      ],
      "stateMutability": "view"
    },
    {
      "type": "function",
      "name": "getValidatorsPaginated",
      "inputs": [
        {
          "name": "cursor",
          "type": "address",
          "internalType": "address"
        },
        {
          "name": "size",
          "type": "uint256",
          "internalType": "uint256"
        }
      ],
      "outputs": [
        {
          "name": "array",
          "type": "address[]",
          "internalType": "address[]"
        },
        {
          "name": "next",
          "type": "address",
          "internalType": "address"
        }
      ],
      "stateMutability": "view"
    },
    {
      "type": "function",
      "name": "initMSA",
      "inputs": [
        {
          "name": "$valdiators",
          "type": "tuple[]",
          "internalType": "struct BootstrapConfig[]",
          "components": [
            {
              "name": "module",
              "type": "address",
              "internalType": "address"
            },
            {
              "name": "data",
              "type": "bytes",
              "internalType": "bytes"
            }
          ]
        },
        {
          "name": "$executors",
          "type": "tuple[]",
          "internalType": "struct BootstrapConfig[]",
          "components": [
            {
              "name": "module",
              "type": "address",
              "internalType": "address"
            },
            {
              "name": "data",
              "type": "bytes",
              "internalType": "bytes"
            }
          ]
        },
        {
          "name": "_hook",
          "type": "tuple",
          "internalType": "struct BootstrapConfig",
          "components": [
            {
              "name": "module",
              "type": "address",
              "internalType": "address"
            },
            {
              "name": "data",
              "type": "bytes",
              "internalType": "bytes"
            }
          ]
        },
        {
          "name": "_fallbacks",
          "type": "tuple[]",
          "internalType": "struct BootstrapConfig[]",
          "components": [
            {
              "name": "module",
              "type": "address",
              "internalType": "address"
            },
            {
              "name": "data",
              "type": "bytes",
              "internalType": "bytes"
            }
          ]
        }
      ],
      "outputs": [],
      "stateMutability": "nonpayable"
    },
    {
      "type": "function",
      "name": "singleInitMSA",
      "inputs": [
        {
          "name": "validator",
          "type": "address",
          "internalType": "contract IModule"
        },
        {
          "name": "data",
          "type": "bytes",
          "internalType": "bytes"
        }
      ],
      "outputs": [],
      "stateMutability": "nonpayable"
    },
    {
      "type": "error",
      "name": "AccountAccessUnauthorized",
      "inputs": []
    },
    {
      "type": "error",
      "name": "CannotRemoveLastValidator",
      "inputs": []
    },
    {
      "type": "error",
      "name": "HookAlreadyInstalled",
      "inputs": [
        {
          "name": "currentHook",
          "type": "address",
          "internalType": "address"
        }
      ]
    },
    {
      "type": "error",
      "name": "HookPostCheckFailed",
      "inputs": []
    },
    {
      "type": "error",
      "name": "InvalidModule",
      "inputs": [
        {
          "name": "module",
          "type": "address",
          "internalType": "address"
        }
      ]
    },
    {
      "type": "error",
      "name": "LinkedList_EntryAlreadyInList",
      "inputs": [
        {
          "name": "entry",
          "type": "address",
          "internalType": "address"
        }
      ]
    },
    {
      "type": "error",
      "name": "LinkedList_InvalidEntry",
      "inputs": [
        {
          "name": "entry",
          "type": "address",
          "internalType": "address"
        }
      ]
    },
    {
      "type": "error",
      "name": "LinkedList_InvalidPage",
      "inputs": []
    },
    {
      "type": "error",
      "name": "NoFallbackHandler",
      "inputs": [
        {
          "name": "selector",
          "type": "bytes4",
          "internalType": "bytes4"
        }
      ]
    }
  ],
  "bytecode": {
    "object": "0x6080604052348015600f57600080fd5b506113308061001f6000396000f3fe60806040526004361061007f5760003560e01c80636b0d5cc41161004e5780636b0d5cc414610280578063b0d691fe146102a0578063ea5f61d0146102c3578063eac9b20d146102e357610086565b80630a664dba146101d35780635e87556d146102055780635faac46b14610232578063642219af1461026057610086565b3661008657005b60003560e01c63bc197c81811463f23a6e6182141763150b7a02821417156100b257806020526020603cf35b50600080356001600160e01b03191681526000805160206112db8339815191526020526040902080546001600160a01b03811690600160a01b900460f81b8161012157604051632464e76d60e11b81526001600160e01b03196000351660048201526024015b60405180910390fd5b61012f81607f60f91b610399565b156101835760408051368101909152366000823760408051601481019091523360601b90526000803660140183865afa90506101713d60408051918201905290565b3d6000823e8161017f573d81fd5b3d81f35b61018e816000610399565b156101d15760408051368101909152366000823760408051601481019091523360601b9052600080366014018382875af190506101713d60408051918201905290565b005b3480156101df57600080fd5b506101e86103b0565b6040516001600160a01b0390911681526020015b60405180910390f35b34801561021157600080fd5b50610225610220366004610d4f565b6103df565b6040516101fc9190610e6c565b34801561023e57600080fd5b5061025261024d366004610e97565b610468565b6040516101fc929190610ec3565b34801561026c57600080fd5b506101d161027b366004610d4f565b6104a5565b34801561028c57600080fd5b506101d161029b366004610f26565b6106f1565b3480156102ac57600080fd5b506f71727de22e5e9d8baf0edac6f37da0326101e8565b3480156102cf57600080fd5b506102526102de366004610e97565b610701565b3480156102ef57600080fd5b5061036b6102fe366004610fad565b604080518082018252600080825260209182018190526001600160e01b03199390931683526000805160206112db8339815191528152918190208151808301909252546001600160a01b0381168252600160a01b900460f81b6001600160f81b0319169181019190915290565b6040805182516001600160a01b031681526020928301516001600160f81b03191692810192909252016101fc565b6001600160f81b0319828116908216145b92915050565b60006103da7f36e05829dd1b9a4411d96a3549582172d7f071c1c0db5c573fcf94eb284316085490565b905090565b606030306001600160a01b031663642219af8a8a8a8a8a8a8a60405160240161040e97969594939291906110e8565b604051602081830303815290604052915060e01b6020820180516001600160e01b03838183161783525050505060405160200161044c929190611146565b6040516020818303038152906040529050979650505050505050565b606060007ff88ce1fdb7fb1cbd3282e49729100fa3f2d6ee9f797961fe4fb1871cea89ea0261049881868661072d565b92509250505b9250929050565b60005b868110156105245761051c8888838181106104c5576104c5611172565b90506020028101906104d79190611188565b6104e59060208101906111a8565b8989848181106104f7576104f7611172565b90506020028101906105099190611188565b6105179060208101906111c5565b6108da565b6001016104a8565b5060005b848110156105e657600086868381811061054457610544611172565b90506020028101906105569190611188565b6105649060208101906111a8565b6001600160a01b0316146105de576105de86868381811061058757610587611172565b90506020028101906105999190611188565b6105a79060208101906111a8565b8787848181106105b9576105b9611172565b90506020028101906105cb9190611188565b6105d99060208101906111c5565b610961565b600101610528565b5060006105f660208501856111a8565b6001600160a01b0316146106265761062661061460208501856111a8565b61062160208601866111c5565b61098c565b60005b818110156106e757600083838381811061064557610645611172565b90506020028101906106579190611188565b6106659060208101906111a8565b6001600160a01b0316146106df576106df83838381811061068857610688611172565b905060200281019061069a9190611188565b6106a89060208101906111a8565b8484848181106106ba576106ba611172565b90506020028101906106cc9190611188565b6106da9060208101906111c5565b610a13565b600101610629565b5050505050505050565b6106fc8383836108da565b505050565b606060007ff88ce1fdb7fb1cbd3282e49729100fa3f2d6ee9f797961fe4fb1871cea89ea036104988186865b606060006001600160a01b03841660011480159061075257506107508585610bc4565b155b1561077b57604051637c84ecfb60e01b81526001600160a01b0385166004820152602401610118565b8260000361079c5760405163f725081760e01b815260040160405180910390fd5b8267ffffffffffffffff8111156107b5576107b561120c565b6040519080825280602002602001820160405280156107de578160200160208202803683370190505b506001600160a01b03808616600090815260208890526040812054929450911691505b6001600160a01b0382161580159061082357506001600160a01b038216600114155b801561082e57508381105b15610888578183828151811061084657610846611172565b6001600160a01b03928316602091820292909201810191909152928116600090815292879052604090922054909116908061088081611238565b915050610801565b6001600160a01b0382166001148015906108a25750600081115b156108ce57826108b3600183611251565b815181106108c3576108c3611172565b602002602001015191505b80835250935093915050565b7ff88ce1fdb7fb1cbd3282e49729100fa3f2d6ee9f797961fe4fb1871cea89ea026109058185610c00565b6040516306d61fe760e41b81526001600160a01b03851690636d61fe70906109339086908690600401611264565b600060405180830381600087803b15801561094d57600080fd5b505af11580156106e7573d6000803e3d6000fd5b7ff88ce1fdb7fb1cbd3282e49729100fa3f2d6ee9f797961fe4fb1871cea89ea036109058185610c00565b60006109b67f36e05829dd1b9a4411d96a3549582172d7f071c1c0db5c573fcf94eb284316085490565b90506001600160a01b038116156109eb5760405163741cbe0360e01b81526001600160a01b0382166004820152602401610118565b610905847f36e05829dd1b9a4411d96a3549582172d7f071c1c0db5c573fcf94eb2843160855565b6000610a226004828486611278565b610a2b916112a2565b9050600083836004818110610a4257610a42611172565b909101356001600160f81b031916915060009050610a638460058188611278565b8080601f016020809104026020016040519081016040528093929190818152602001838380828437600092019190915250929350610aa69250859150610cd69050565b15610af35760405162461bcd60e51b815260206004820152601e60248201527f46756e6374696f6e2073656c6563746f7220616c7265616479207573656400006044820152606401610118565b6040805180820182526001600160a01b038881168083526001600160f81b0319861660208085019182526001600160e01b0319891660009081526000805160206112db83398151915290915285902093518454915160f81c600160a01b026001600160a81b03199092169316929092179190911790915590516306d61fe760e41b8152636d61fe7090610b8a908490600401610e6c565b600060405180830381600087803b158015610ba457600080fd5b505af1158015610bb8573d6000803e3d6000fd5b50505050505050505050565b600060016001600160a01b03831614801590610bf957506001600160a01b038281166000908152602085905260409020541615155b9392505050565b6001600160a01b0381161580610c1f57506001600160a01b0381166001145b15610c4857604051637c84ecfb60e01b81526001600160a01b0382166004820152602401610118565b6001600160a01b038181166000908152602084905260409020541615610c8c57604051631034f46960e21b81526001600160a01b0382166004820152602401610118565b60016000818152602093909352604080842080546001600160a01b039485168087529286208054959091166001600160a01b03199586161790559190935280549091169091179055565b6001600160e01b03191660009081526000805160206112db83398151915260205260409020546001600160a01b0316151590565b60008083601f840112610d1c57600080fd5b50813567ffffffffffffffff811115610d3457600080fd5b6020830191508360208260051b850101111561049e57600080fd5b60008060008060008060006080888a031215610d6a57600080fd5b873567ffffffffffffffff811115610d8157600080fd5b610d8d8a828b01610d0a565b909850965050602088013567ffffffffffffffff811115610dad57600080fd5b610db98a828b01610d0a565b909650945050604088013567ffffffffffffffff811115610dd957600080fd5b88016040818b031215610deb57600080fd5b9250606088013567ffffffffffffffff811115610e0757600080fd5b610e138a828b01610d0a565b989b979a50959850939692959293505050565b6000815180845260005b81811015610e4c57602081850181015186830182015201610e30565b506000602082860101526020601f19601f83011685010191505092915050565b602081526000610bf96020830184610e26565b6001600160a01b0381168114610e9457600080fd5b50565b60008060408385031215610eaa57600080fd5b8235610eb581610e7f565b946020939093013593505050565b6040808252835190820181905260009060208501906060840190835b81811015610f065783516001600160a01b0316835260209384019390920191600101610edf565b50506001600160a01b039490941660209390930192909252509092915050565b600080600060408486031215610f3b57600080fd5b8335610f4681610e7f565b9250602084013567ffffffffffffffff811115610f6257600080fd5b8401601f81018613610f7357600080fd5b803567ffffffffffffffff811115610f8a57600080fd5b866020828401011115610f9c57600080fd5b939660209190910195509293505050565b600060208284031215610fbf57600080fd5b81356001600160e01b031981168114610bf957600080fd5b81835281816020850137506000828201602090810191909152601f909101601f19169091010190565b6000813561100d81610e7f565b6001600160a01b03168352602082013536839003601e1901811261103057600080fd5b820160208101903567ffffffffffffffff81111561104d57600080fd5b80360382131561105c57600080fd5b60406020860152611071604086018284610fd7565b95945050505050565b60008383855260208501945060208460051b8201018360005b868110156110dc57838303601f19018852813536879003603e190181126110b957600080fd5b6110c584888301611000565b6020998a0199909450929092019150600101611093565b50909695505050505050565b6080815260006110fc60808301898b61107a565b828103602084015261110f81888a61107a565b905082810360408401526111238187611000565b9050828103606084015261113881858761107a565b9a9950505050505050505050565b6001600160a01b038316815260406020820181905260009061116a90830184610e26565b949350505050565b634e487b7160e01b600052603260045260246000fd5b60008235603e1983360301811261119e57600080fd5b9190910192915050565b6000602082840312156111ba57600080fd5b8135610bf981610e7f565b6000808335601e198436030181126111dc57600080fd5b83018035915067ffffffffffffffff8211156111f757600080fd5b60200191503681900382131561049e57600080fd5b634e487b7160e01b600052604160045260246000fd5b634e487b7160e01b600052601160045260246000fd5b60006001820161124a5761124a611222565b5060010190565b818103818111156103aa576103aa611222565b60208152600061116a602083018486610fd7565b6000808585111561128857600080fd5b8386111561129557600080fd5b5050820193919092039150565b80356001600160e01b031981169060048410156112d3576001600160e01b0319600485900360031b81901b82161691505b509291505056fef88ce1fdb7fb1cbd3282e49729100fa3f2d6ee9f797961fe4fb1871cea89ea04a2646970667358221220678454594487638be476c9fe83cbedbb3e9a8a9c78166168eda5fe0ad5d32b3364736f6c634300081a0033",
    "linkReferences": {}
  },
  "methodIdentifiers": {
    "_getInitMSACalldata((address,bytes)[],(address,bytes)[],(address,bytes),(address,bytes)[])": "5e87556d",
    "entryPoint()": "b0d691fe",
    "getActiveFallbackHandler(bytes4)": "eac9b20d",
    "getActiveHook()": "0a664dba",
    "getExecutorsPaginated(address,uint256)": "ea5f61d0",
    "getValidatorsPaginated(address,uint256)": "5faac46b",
    "initMSA((address,bytes)[],(address,bytes)[],(address,bytes),(address,bytes)[])": "642219af",
    "singleInitMSA(address,bytes)": "6b0d5cc4"
  },
  "id": 65
}