{
  "abi": [
    {
      "type": "fallback",
      "stateMutability": "payable"
    },
    {
      "type": "receive",
      "stateMutability": "payable"
    },
    {
      "type": "function",
      "name": "accountId",
      "inputs": [],
      "outputs": [
        {
          "name": "",
          "type": "string",
          "internalType": "string"
        }
      ],
      "stateMutability": "view"
    },
    {
      "type": "function",
      "name": "entryPoint",
      "inputs": [],
      "outputs": [
        {
          "name": "",
          "type": "address",
          "internalType": "address"
        }
      ],
      "stateMutability": "view"
    },
    {
      "type": "function",
      "name": "execute",
      "inputs": [
        {
          "name": "mode",
          "type": "bytes32",
          "internalType": "ModeCode"
        },
        {
          "name": "executionCalldata",
          "type": "bytes",
          "internalType": "bytes"
        }
      ],
      "outputs": [],
      "stateMutability": "payable"
    },
    {
      "type": "function",
      "name": "executeFromExecutor",
      "inputs": [
        {
          "name": "mode",
          "type": "bytes32",
          "internalType": "ModeCode"
        },
        {
          "name": "executionCalldata",
          "type": "bytes",
          "internalType": "bytes"
        }
      ],
      "outputs": [
        {
          "name": "returnData",
          "type": "bytes[]",
          "internalType": "bytes[]"
        }
      ],
      "stateMutability": "payable"
    },
    {
      "type": "function",
      "name": "executeUserOp",
      "inputs": [
        {
          "name": "userOp",
          "type": "tuple",
          "internalType": "struct PackedUserOperation",
          "components": [
            {
              "name": "sender",
              "type": "address",
              "internalType": "address"
            },
            {
              "name": "nonce",
              "type": "uint256",
              "internalType": "uint256"
            },
            {
              "name": "initCode",
              "type": "bytes",
              "internalType": "bytes"
            },
            {
              "name": "callData",
              "type": "bytes",
              "internalType": "bytes"
            },
            {
              "name": "accountGasLimits",
              "type": "bytes32",
              "internalType": "bytes32"
            },
            {
              "name": "preVerificationGas",
              "type": "uint256",
              "internalType": "uint256"
            },
            {
              "name": "gasFees",
              "type": "bytes32",
              "internalType": "bytes32"
            },
            {
              "name": "paymasterAndData",
              "type": "bytes",
              "internalType": "bytes"
            },
            {
              "name": "signature",
              "type": "bytes",
              "internalType": "bytes"
            }
          ]
        }
      ],
      "outputs": [],
      "stateMutability": "payable"
    },
    {
      "type": "function",
      "name": "getActiveFallbackHandler",
      "inputs": [],
      "outputs": [
        {
          "name": "",
          "type": "address",
          "internalType": "address"
        }
      ],
      "stateMutability": "view"
    },
    {
      "type": "function",
      "name": "getActiveHook",
      "inputs": [],
      "outputs": [
        {
          "name": "hook",
          "type": "address",
          "internalType": "address"
        }
      ],
      "stateMutability": "view"
    },
    {
      "type": "function",
      "name": "getExecutorsPaginated",
      "inputs": [
        {
          "name": "cursor",
          "type": "address",
          "internalType": "address"
        },
        {
          "name": "size",
          "type": "uint256",
          "internalType": "uint256"
        }
      ],
      "outputs": [
        {
          "name": "array",
          "type": "address[]",
          "internalType": "address[]"
        },
        {
          "name": "next",
          "type": "address",
          "internalType": "address"
        }
      ],
      "stateMutability": "view"
    },
    {
      "type": "function",
      "name": "getValidatorPaginated",
      "inputs": [
        {
          "name": "cursor",
          "type": "address",
          "internalType": "address"
        },
        {
          "name": "size",
          "type": "uint256",
          "internalType": "uint256"
        }
      ],
      "outputs": [
        {
          "name": "array",
          "type": "address[]",
          "internalType": "address[]"
        },
        {
          "name": "next",
          "type": "address",
          "internalType": "address"
        }
      ],
      "stateMutability": "view"
    },
    {
      "type": "function",
      "name": "initializeAccount",
      "inputs": [
        {
          "name": "data",
          "type": "bytes",
          "internalType": "bytes"
        }
      ],
      "outputs": [],
      "stateMutability": "payable"
    },
    {
      "type": "function",
      "name": "installModule",
      "inputs": [
        {
          "name": "moduleType",
          "type": "uint256",
          "internalType": "uint256"
        },
        {
          "name": "module",
          "type": "address",
          "internalType": "address"
        },
        {
          "name": "initData",
          "type": "bytes",
          "internalType": "bytes"
        }
      ],
      "outputs": [],
      "stateMutability": "payable"
    },
    {
      "type": "function",
      "name": "isModuleInstalled",
      "inputs": [
        {
          "name": "moduleType",
          "type": "uint256",
          "internalType": "uint256"
        },
        {
          "name": "module",
          "type": "address",
          "internalType": "address"
        },
        {
          "name": "additionalContext",
          "type": "bytes",
          "internalType": "bytes"
        }
      ],
      "outputs": [
        {
          "name": "",
          "type": "bool",
          "internalType": "bool"
        }
      ],
      "stateMutability": "view"
    },
    {
      "type": "function",
      "name": "isValidSignature",
      "inputs": [
        {
          "name": "hash",
          "type": "bytes32",
          "internalType": "bytes32"
        },
        {
          "name": "data",
          "type": "bytes",
          "internalType": "bytes"
        }
      ],
      "outputs": [
        {
          "name": "",
          "type": "bytes4",
          "internalType": "bytes4"
        }
      ],
      "stateMutability": "payable"
    },
    {
      "type": "function",
      "name": "supportsAccountMode",
      "inputs": [
        {
          "name": "mode",
          "type": "bytes32",
          "internalType": "ModeCode"
        }
      ],
      "outputs": [
        {
          "name": "isSupported",
          "type": "bool",
          "internalType": "bool"
        }
      ],
      "stateMutability": "view"
    },
    {
      "type": "function",
      "name": "supportsModule",
      "inputs": [
        {
          "name": "modulTypeId",
          "type": "uint256",
          "internalType": "uint256"
        }
      ],
      "outputs": [
        {
          "name": "",
          "type": "bool",
          "internalType": "bool"
        }
      ],
      "stateMutability": "view"
    },
    {
      "type": "function",
      "name": "uninstallModule",
      "inputs": [
        {
          "name": "moduleType",
          "type": "uint256",
          "internalType": "uint256"
        },
        {
          "name": "module",
          "type": "address",
          "internalType": "address"
        },
        {
          "name": "deInitData",
          "type": "bytes",
          "internalType": "bytes"
        }
      ],
      "outputs": [],
      "stateMutability": "payable"
    },
    {
      "type": "function",
      "name": "validateUserOp",
      "inputs": [
        {
          "name": "userOp",
          "type": "tuple",
          "internalType": "struct PackedUserOperation",
          "components": [
            {
              "name": "sender",
              "type": "address",
              "internalType": "address"
            },
            {
              "name": "nonce",
              "type": "uint256",
              "internalType": "uint256"
            },
            {
              "name": "initCode",
              "type": "bytes",
              "internalType": "bytes"
            },
            {
              "name": "callData",
              "type": "bytes",
              "internalType": "bytes"
            },
            {
              "name": "accountGasLimits",
              "type": "bytes32",
              "internalType": "bytes32"
            },
            {
              "name": "preVerificationGas",
              "type": "uint256",
              "internalType": "uint256"
            },
            {
              "name": "gasFees",
              "type": "bytes32",
              "internalType": "bytes32"
            },
            {
              "name": "paymasterAndData",
              "type": "bytes",
              "internalType": "bytes"
            },
            {
              "name": "signature",
              "type": "bytes",
              "internalType": "bytes"
            }
          ]
        },
        {
          "name": "userOpHash",
          "type": "bytes32",
          "internalType": "bytes32"
        },
        {
          "name": "missingAccountFunds",
          "type": "uint256",
          "internalType": "uint256"
        }
      ],
      "outputs": [
        {
          "name": "validSignature",
          "type": "uint256",
          "internalType": "uint256"
        }
      ],
      "stateMutability": "payable"
    },
    {
      "type": "event",
      "name": "ModuleInstalled",
      "inputs": [
        {
          "name": "moduleTypeId",
          "type": "uint256",
          "indexed": false,
          "internalType": "uint256"
        },
        {
          "name": "module",
          "type": "address",
          "indexed": false,
          "internalType": "address"
        }
      ],
      "anonymous": false
    },
    {
      "type": "event",
      "name": "ModuleUninstalled",
      "inputs": [
        {
          "name": "moduleTypeId",
          "type": "uint256",
          "indexed": false,
          "internalType": "uint256"
        },
        {
          "name": "module",
          "type": "address",
          "indexed": false,
          "internalType": "address"
        }
      ],
      "anonymous": false
    },
    {
      "type": "event",
      "name": "TryExecuteUnsuccessful",
      "inputs": [
        {
          "name": "batchExecutionindex",
          "type": "uint256",
          "indexed": false,
          "internalType": "uint256"
        },
        {
          "name": "result",
          "type": "bytes",
          "indexed": false,
          "internalType": "bytes"
        }
      ],
      "anonymous": false
    },
    {
      "type": "error",
      "name": "AccountAccessUnauthorized",
      "inputs": []
    },
    {
      "type": "error",
      "name": "AccountInitializationFailed",
      "inputs": []
    },
    {
      "type": "error",
      "name": "CannotRemoveLastValidator",
      "inputs": []
    },
    {
      "type": "error",
      "name": "ExecutionFailed",
      "inputs": []
    },
    {
      "type": "error",
      "name": "HookAlreadyInstalled",
      "inputs": [
        {
          "name": "currentHook",
          "type": "address",
          "internalType": "address"
        }
      ]
    },
    {
      "type": "error",
      "name": "HookPostCheckFailed",
      "inputs": []
    },
    {
      "type": "error",
      "name": "InvalidModule",
      "inputs": [
        {
          "name": "module",
          "type": "address",
          "internalType": "address"
        }
      ]
    },
    {
      "type": "error",
      "name": "LinkedList_AlreadyInitialized",
      "inputs": []
    },
    {
      "type": "error",
      "name": "LinkedList_EntryAlreadyInList",
      "inputs": [
        {
          "name": "entry",
          "type": "address",
          "internalType": "address"
        }
      ]
    },
    {
      "type": "error",
      "name": "LinkedList_InvalidEntry",
      "inputs": [
        {
          "name": "entry",
          "type": "address",
          "internalType": "address"
        }
      ]
    },
    {
      "type": "error",
      "name": "LinkedList_InvalidPage",
      "inputs": []
    },
    {
      "type": "error",
      "name": "UnsupportedCallType",
      "inputs": [
        {
          "name": "callType",
          "type": "bytes1",
          "internalType": "CallType"
        }
      ]
    },
    {
      "type": "error",
      "name": "UnsupportedExecType",
      "inputs": [
        {
          "name": "execType",
          "type": "bytes1",
          "internalType": "ExecType"
        }
      ]
    },
    {
      "type": "error",
      "name": "UnsupportedModuleType",
      "inputs": [
        {
          "name": "moduleType",
          "type": "uint256",
          "internalType": "uint256"
        }
      ]
    }
  ],
  "bytecode": {
    "object": "0x6080604052348015600f57600080fd5b506127758061001f6000396000f3fe6080604052600436106101025760003560e01c80638acf4c6a11610095578063b0d691fe11610064578063b0d691fe1461036b578063d691c96414610392578063e9ae5c53146103b2578063ea5f61d0146103c5578063f2dc691d146103e557610109565b80638acf4c6a146102ce5780639517e29f146102f95780639cfd7cff1461030c578063a71763a81461035857610109565b80634b6a1419116100d15780634b6a1419146102585780634f55535c1461026d57806372aea6541461028d57806385571368146102a057610109565b80630a664dba146101a9578063112d3a7d146101db5780631626ba7e1461020b57806319822f7c1461023757610109565b3661010957005b60003560e01c63bc197c81811463f23a6e6182141763150b7a028214171561013557806020526020603cf35b506000805160206126c0833981519152546001600160a01b03168061015957600080fd5b60408051368101909152366000823760408051601481019091523360601b9052600080366014018382865af190506101973d60408051918201905290565b3d6000823e816101a5573d81fd5b3d81f35b3480156101b557600080fd5b506101be610405565b6040516001600160a01b0390911681526020015b60405180910390f35b3480156101e757600080fd5b506101fb6101f6366004611e75565b610422565b60405190151581526020016101d2565b61021e610219366004611ed0565b610495565b6040516001600160e01b031990911681526020016101d2565b61024a610245366004611f34565b610570565b6040519081526020016101d2565b61026b610266366004611f81565b610626565b005b34801561027957600080fd5b506101fb610288366004611fc2565b6106b0565b61026b61029b366004611fdb565b61072f565b3480156102ac57600080fd5b506102c06102bb36600461200f565b610813565b6040516101d292919061203b565b3480156102da57600080fd5b506000805160206126c0833981519152546001600160a01b03166101be565b61026b610307366004611e75565b61083e565b34801561031857600080fd5b50604080518082018252601b81527f754d53412e616476616e6365642f77697468486f6f6b2e76302e310000000000602082015290516101d291906120ee565b61026b610366366004611e75565b610931565b34801561037757600080fd5b50735ff137d4b0fdcd49dca30c7cf57e578a026d27896101be565b6103a56103a0366004611ed0565b6109fe565b6040516101d29190612101565b61026b6103c0366004611ed0565b610f2e565b3480156103d157600080fd5b506102c06103e036600461200f565b611284565b3480156103f157600080fd5b506101fb610400366004611fc2565b6112a2565b600061041d6000805160206127008339815191525490565b905090565b60006001850361043c57610435846112f1565b905061048d565b6002850361044d5761043584611313565b60038503610478576000805160206126c0833981519152546001600160a01b03808616911614610435565b60048503610489576104358461132e565b5060005b949350505050565b6000806104a56014828587612166565b6104ae91612190565b60601c90506104bc816112f1565b6104e957604051635c93ff2f60e11b81526001600160a01b03821660048201526024015b60405180910390fd5b6001600160a01b03811663f551e2ee3387610507876014818b612166565b6040518563ffffffff1660e01b81526004016105269493929190612206565b602060405180830381865afa158015610543573d6000803e3d6000fd5b505050506040513d601f19601f820116820180604052508101906105679190612238565b95945050505050565b6000816020850135606081901c90610587826112f1565b6105965760019350505061060c565b604051639700320360e01b81526001600160a01b038316906397003203906105c4908a908a906004016122a7565b6020604051808303816000875af11580156105e3573d6000803e3d6000fd5b505050506040513d601f19601f8201168201806040525081019061060791906123ab565b935050505b801561061e5760003860003884335af1505b509392505050565b61062e611360565b60008061063d83850185612431565b915091506000826001600160a01b03168260405161065b91906124c3565b600060405180830381855af49150503d8060008114610696576040519150601f19603f3d011682016040523d82523d6000602084013e61069b565b606091505b50509050806106a957600080fd5b5050505050565b600081600881901b6106c682600160f81b611392565b156106d457600192506106f7565b6106df826000611392565b156106ed57600192506106f7565b5060009392505050565b610702816000611392565b156107105760019250610728565b61071e81600160f81b611392565b156106ed57600192505b5050919050565b33735ff137d4b0fdcd49dca30c7cf57e578a026d2789148061075057503330145b61076d57604051635629665f60e11b815260040160405180910390fd5b36600061077d60608401846124df565b61078b916004908290612166565b915091506000306001600160a01b031683836040516107ab929190612525565b600060405180830381855af49150503d80600081146107e6576040519150601f19603f3d011682016040523d82523d6000602084013e6107eb565b606091505b505090508061080d57604051632b3f6d1160e21b815260040160405180910390fd5b50505050565b606060006000805160206127208339815191526108318186866113a9565b92509250505b9250929050565b33735ff137d4b0fdcd49dca30c7cf57e578a026d2789148061085f57503330145b61087c57604051635629665f60e11b815260040160405180910390fd5b600184036108945761088f838383611545565b6108e9565b600284036108a75761088f8383836115c4565b600384036108ba5761088f8383836115dd565b600484036108cd5761088f838383611685565b60405163041c38b360e41b8152600481018590526024016104e0565b604080518581526001600160a01b03851660208201527fd21d0b289f126c4b473ea641963e766833c2f13866e4ff480abd787c100ef12391015b60405180910390a150505050565b33735ff137d4b0fdcd49dca30c7cf57e578a026d2789148061095257503330145b61096f57604051635629665f60e11b815260040160405180910390fd5b6001840361098757610982838383611748565b6109c0565b6002840361099a576109828383836117dc565b600384036109ad576109828383836117fa565b600484036108cd5761098283838361188d565b604080518581526001600160a01b03851660208201527f341347516a9de374859dfda710fa4828b2d48cb57d4fbe4c1149612b8e02276e9101610923565b60606000805160206126e0833981519152610a198133611909565b610a3857604051635c93ff2f60e11b81523360048201526024016104e0565b6000610a506000805160206127008339815191525490565b90506001600160a01b038116610c7c5785600881901b610a7482600160f81b611392565b15610aed5786358701602081019035610a8e836000611392565b15610aa457610a9d8282611943565b9650610ae6565b610ab283600160f81b611392565b15610ac157610a9d8282611a1b565b6040516308c3ee0360e11b81526001600160f81b0319841660048201526024016104e0565b5050610c75565b610af8826000611392565b15610c5057600080366000610b0d8b8b611b48565b6040805160018082528183019092529498509296509094509250816020015b6060815260200190600190039081610b2c5790505098506000610b4f8682611392565b15610b8357610b6085858585611b99565b8a600081518110610b7357610b73612535565b6020026020010181905250610c46565b610b9186600160f81b611392565b15610c2157610ba285858585611bcf565b8b600081518110610bb557610bb5612535565b6020908102919091010152905080610c1c577fe723f28f104e46b47fd3531f3608374ac226bcf3ddda334a23a266453e0efdb760008b600081518110610bfd57610bfd612535565b6020026020010151604051610c1392919061254b565b60405180910390a15b610c46565b6040516308c3ee0360e11b81526001600160f81b0319871660048201526024016104e0565b5050505050610c75565b604051632e5bf3f960e21b81526001600160f81b0319831660048201526024016104e0565b5050610f25565b604051631057c74d60e11b81526000906001600160a01b038316906320af8e9a90610caf90339085903690600401612564565b6000604051808303816000875af1158015610cce573d6000803e3d6000fd5b505050506040513d6000823e601f3d908101601f19168201604052610cf69190810190612589565b905086600881901b610d0c82600160f81b611392565b15610d605787358801602081019035610d26836000611392565b15610d3c57610d358282611943565b9750610d59565b610d4a83600160f81b611392565b15610ac157610d358282611a1b565b5050610e95565b610d6b826000611392565b15610c5057600080366000610d808c8c611b48565b6040805160018082528183019092529498509296509094509250816020015b6060815260200190600190039081610d9f5790505099506000610dc28682611392565b15610df657610dd385858585611b99565b8b600081518110610de657610de6612535565b6020026020010181905250610e8f565b610e0486600160f81b611392565b15610c2157610e1585858585611bcf565b8c600081518110610e2857610e28612535565b6020908102919091010152905080610e8f577fe723f28f104e46b47fd3531f3608374ac226bcf3ddda334a23a266453e0efdb760008c600081518110610e7057610e70612535565b6020026020010151604051610e8692919061254b565b60405180910390a15b50505050505b5050604051630b9dfbed60e11b81526001600160a01b0383169063173bf7da90610ec39084906004016120ee565b6020604051808303816000875af1158015610ee2573d6000803e3d6000fd5b505050506040513d601f19601f82011682018060405250810190610f0691906125f6565b610f235760405163546b3e6360e01b815260040160405180910390fd5b505b50509392505050565b33735ff137d4b0fdcd49dca30c7cf57e578a026d27891480610f4f57503330145b610f6c57604051635629665f60e11b815260040160405180910390fd5b6000610f846000805160206127008339815191525490565b90506001600160a01b03811661109f5783600881901b610fa882600160f81b611392565b15610ffb5784358501602081019035610fc2836000611392565b15610fd757610fd18282611943565b50610ff4565b610fe583600160f81b611392565b15610ac157610fd18282611a1b565b5050611098565b611006826000611392565b15610c505760008036600061101b8989611b48565b935093509350935061103185600060f81b611392565b156110485761104284848484611b99565b50611093565b61105685600160f81b611392565b1561106e5761106784848484611bcf565b5050611093565b6040516308c3ee0360e11b81526001600160f81b0319861660048201526024016104e0565b505050505b505061080d565b604051631057c74d60e11b81526000906001600160a01b038316906320af8e9a906110d290339085903690600401612564565b6000604051808303816000875af11580156110f1573d6000803e3d6000fd5b505050506040513d6000823e601f3d908101601f191682016040526111199190810190612589565b905084600881901b61112f82600160f81b611392565b156111825785358601602081019035611149836000611392565b1561115e576111588282611943565b5061117b565b61116c83600160f81b611392565b15610ac1576111588282611a1b565b50506111f6565b61118d826000611392565b15610c50576000803660006111a28a8a611b48565b93509350935093506111b885600060f81b611392565b156111cf576111c984848484611b99565b506111f1565b6111dd85600160f81b611392565b1561106e576111ee84848484611bcf565b50505b505050505b5050604051630b9dfbed60e11b81526001600160a01b0383169063173bf7da906112249084906004016120ee565b6020604051808303816000875af1158015611243573d6000803e3d6000fd5b505050506040513d601f19601f8201168201806040525081019061126791906125f6565b6106a95760405163546b3e6360e01b815260040160405180910390fd5b606060006000805160206126e08339815191526108318186866113a9565b6000600182036112b457506001919050565b600282036112c457506001919050565b600382036112d457506001919050565b600482036112e457506001919050565b506000919050565b919050565b600060008051602061272083398151915261130c8184611909565b9392505050565b60006000805160206126e083398151915261130c8184611909565b6000816001600160a01b03166113506000805160206127008339815191525490565b6001600160a01b03161492915050565b6000805160206127208339815191526113866000805160206126e0833981519152611c0c565b61138f81611c0c565b50565b6001600160f81b0319828116908216145b92915050565b606060006001600160a01b0384166001148015906113cc57506113cc8585611909565b156113f557604051637c84ecfb60e01b81526001600160a01b03851660048201526024016104e0565b826000036114165760405163f725081760e01b815260040160405180910390fd5b826001600160401b0381111561142e5761142e6123c4565b604051908082528060200260200182016040528015611457578160200160208202803683370190505b506001600160a01b03808616600090815260208890526040812054929450911691505b6001600160a01b0382161580159061149c57506001600160a01b038216600114155b80156114a757508381105b1561150157818382815181106114bf576114bf612535565b6001600160a01b0392831660209182029290920181019190915292811660009081529287905260409092205490911690806114f98161262e565b91505061147a565b6001600160a01b038216600114611539578261151e600183612647565b8151811061152e5761152e612535565b602002602001015191505b80835250935093915050565b60008051602061272083398151915261155e8185611c69565b6040516306d61fe760e41b81526001600160a01b03851690636d61fe709061158c908690869060040161265a565b600060405180830381600087803b1580156115a657600080fd5b505af11580156115ba573d6000803e3d6000fd5b5050505050505050565b6000805160206126e083398151915261155e8185611c69565b6000805160206126c0833981519152546001600160a01b03161561160057600080fd5b6000805160206126c083398151915280546001600160a01b0319166001600160a01b0385169081179091556040516306d61fe760e41b8152636d61fe709061164e908590859060040161265a565b600060405180830381600087803b15801561166857600080fd5b505af115801561167c573d6000803e3d6000fd5b50505050505050565b600061169d6000805160206127008339815191525490565b90506001600160a01b038116156116d25760405163741cbe0360e01b81526001600160a01b03821660048201526024016104e0565b6040516306d61fe760e41b81526001600160a01b03851690636d61fe7090611700908690869060040161265a565b600060405180830381600087803b15801561171a57600080fd5b505af115801561172e573d6000803e3d6000fd5b5050505061080d8460008051602061270083398151915255565b60008051602061272083398151915260008061176685850186612431565b9092509050611776838388611d3f565b604051638a91b0e360e01b81526001600160a01b03871690638a91b0e3906117a29084906004016120ee565b600060405180830381600087803b1580156117bc57600080fd5b505af11580156117d0573d6000803e3d6000fd5b50505050505050505050565b6000805160206126e083398151915260008061176685850186612431565b6000805160206126c0833981519152546001600160a01b03908116908416811461184257604051635c93ff2f60e11b81526001600160a01b03851660048201526024016104e0565b6000805160206126c083398151915280546001600160a01b0319169055604051638a91b0e360e01b81526001600160a01b03821690638a91b0e39061158c908690869060040161265a565b604051638a91b0e360e01b81526001600160a01b03841690638a91b0e3906118bb908590859060040161265a565b600060405180830381600087803b1580156118d557600080fd5b505af11580156118e9573d6000803e3d6000fd5b50505050611904600060008051602061270083398151915255565b505050565b600060016001600160a01b0383161480159061130c5750506001600160a01b03908116600090815260209290925260409091205416151590565b606081806001600160401b0381111561195e5761195e6123c4565b60405190808252806020026020018201604052801561199157816020015b606081526020019060019003908161197c5790505b50915060005b81811015611a1357368585838181106119b2576119b2612535565b90506020028101906119c4919061266e565b90506119ed6119d66020830183612684565b60208301356119e860408501856124df565b611b99565b8483815181106119ff576119ff612535565b602090810291909101015250600101611997565b505092915050565b606081806001600160401b03811115611a3657611a366123c4565b604051908082528060200260200182016040528015611a6957816020015b6060815260200190600190039081611a545790505b50915060005b81811015611a135736858583818110611a8a57611a8a612535565b9050602002810190611a9c919061266e565b90506000611ac7611ab06020840184612684565b6020840135611ac260408601866124df565b611bcf565b868581518110611ad957611ad9612535565b6020908102919091010152905080611b3e577fe723f28f104e46b47fd3531f3608374ac226bcf3ddda334a23a266453e0efdb783868581518110611b1f57611b1f612535565b6020026020010151604051611b3592919061254b565b60405180910390a15b5050600101611a6f565b6000803681611b5a6014828789612166565b611b6391612190565b60601c9350611b76603460148789612166565b611b7f916126a1565b9250611b8e8560348189612166565b949793965094505050565b60405181838237600038838387895af1611bb6573d6000823e3d81fd5b3d8152602081013d6000823e3d01604052949350505050565b604051600090828482376000388483888a5af1611bf0573d6000823e806000f35b3d8152602081013d6000823e3d81016040525094509492505050565b60016000908152602082905260409020546001600160a01b031615611c44576040516329e42f3360e11b815260040160405180910390fd5b60016000818152602092909252604090912080546001600160a01b0319169091179055565b6001600160a01b0381161580611c8857506001600160a01b0381166001145b15611cb157604051637c84ecfb60e01b81526001600160a01b03821660048201526024016104e0565b6001600160a01b038181166000908152602084905260409020541615611cf557604051631034f46960e21b81526001600160a01b03821660048201526024016104e0565b60016000818152602093909352604080842080546001600160a01b039485168087529286208054959091166001600160a01b03199586161790559190935280549091169091179055565b6001600160a01b0381161580611d5e57506001600160a01b0381166001145b15611d8757604051637c84ecfb60e01b81526001600160a01b03831660048201526024016104e0565b6001600160a01b03828116600090815260208590526040902054811690821614611dcf57604051637c84ecfb60e01b81526001600160a01b03821660048201526024016104e0565b6001600160a01b0390811660008181526020949094526040808520805494841686529085208054949093166001600160a01b0319948516179092559092528154169055565b6001600160a01b038116811461138f57600080fd5b80356112ec81611e14565b60008083601f840112611e4657600080fd5b5081356001600160401b03811115611e5d57600080fd5b60208301915083602082850101111561083757600080fd5b60008060008060608587031215611e8b57600080fd5b843593506020850135611e9d81611e14565b925060408501356001600160401b03811115611eb857600080fd5b611ec487828801611e34565b95989497509550505050565b600080600060408486031215611ee557600080fd5b8335925060208401356001600160401b03811115611f0257600080fd5b611f0e86828701611e34565b9497909650939450505050565b60006101208284031215611f2e57600080fd5b50919050565b600080600060608486031215611f4957600080fd5b83356001600160401b03811115611f5f57600080fd5b611f6b86828701611f1b565b9660208601359650604090950135949350505050565b60008060208385031215611f9457600080fd5b82356001600160401b03811115611faa57600080fd5b611fb685828601611e34565b90969095509350505050565b600060208284031215611fd457600080fd5b5035919050565b600060208284031215611fed57600080fd5b81356001600160401b0381111561200357600080fd5b61048d84828501611f1b565b6000806040838503121561202257600080fd5b823561202d81611e14565b946020939093013593505050565b6040808252835190820181905260009060208501906060840190835b8181101561207e5783516001600160a01b0316835260209384019390920191600101612057565b50506001600160a01b039490941660209390930192909252509092915050565b60005b838110156120b95781810151838201526020016120a1565b50506000910152565b600081518084526120da81602086016020860161209e565b601f01601f19169290920160200192915050565b60208152600061130c60208301846120c2565b6000602082016020835280845180835260408501915060408160051b86010192506020860160005b8281101561215a57603f198786030184526121458583516120c2565b94506020938401939190910190600101612129565b50929695505050505050565b6000808585111561217657600080fd5b8386111561218357600080fd5b5050820193919092039150565b80356bffffffffffffffffffffffff1981169060148410156121d6576bffffffffffffffffffffffff196bffffffffffffffffffffffff198560140360031b1b82161691505b5092915050565b81835281816020850137506000828201602090810191909152601f909101601f19169091010190565b60018060a01b038516815283602082015260606040820152600061222e6060830184866121dd565b9695505050505050565b60006020828403121561224a57600080fd5b81516001600160e01b03198116811461130c57600080fd5b6000808335601e1984360301811261227957600080fd5b83016020810192503590506001600160401b0381111561229857600080fd5b80360382131561083757600080fd5b604081526122c8604082016122bb85611e29565b6001600160a01b03169052565b6020830135606082015260006122e16040850185612262565b61012060808501526122f8610160850182846121dd565b9150506123086060860186612262565b848303603f190160a086015261231f8382846121dd565b608088013560c08781019190915260a089013560e0808901919091529089013561010088015290935061235792508701905086612262565b848303603f190161012086015261236f8382846121dd565b92505050612381610100860186612262565b848303603f19016101408601526123998382846121dd565b93505050508260208301529392505050565b6000602082840312156123bd57600080fd5b5051919050565b634e487b7160e01b600052604160045260246000fd5b604051601f8201601f191681016001600160401b0381118282101715612402576124026123c4565b604052919050565b60006001600160401b03821115612423576124236123c4565b50601f01601f191660200190565b6000806040838503121561244457600080fd5b823561244f81611e14565b915060208301356001600160401b0381111561246a57600080fd5b8301601f8101851361247b57600080fd5b803561248e6124898261240a565b6123da565b8181528660208385010111156124a357600080fd5b816020840160208301376000602083830101528093505050509250929050565b600082516124d581846020870161209e565b9190910192915050565b6000808335601e198436030181126124f657600080fd5b8301803591506001600160401b0382111561251057600080fd5b60200191503681900382131561083757600080fd5b8183823760009101908152919050565b634e487b7160e01b600052603260045260246000fd5b82815260406020820152600061048d60408301846120c2565b6001600160a01b038416815260406020820181905260009061056790830184866121dd565b60006020828403121561259b57600080fd5b81516001600160401b038111156125b157600080fd5b8201601f810184136125c257600080fd5b80516125d06124898261240a565b8181528560208385010111156125e557600080fd5b61056782602083016020860161209e565b60006020828403121561260857600080fd5b8151801515811461130c57600080fd5b634e487b7160e01b600052601160045260246000fd5b60006001820161264057612640612618565b5060010190565b818103818111156113a3576113a3612618565b60208152600061048d6020830184866121dd565b60008235605e198336030181126124d557600080fd5b60006020828403121561269657600080fd5b813561130c81611e14565b803560208310156113a357600019602084900360031b1b169291505056fef88ce1fdb7fb1cbd3282e49729100fa3f2d6ee9f797961fe4fb1871cea89ea04f88ce1fdb7fb1cbd3282e49729100fa3f2d6ee9f797961fe4fb1871cea89ea0336e05829dd1b9a4411d96a3549582172d7f071c1c0db5c573fcf94eb28431608f88ce1fdb7fb1cbd3282e49729100fa3f2d6ee9f797961fe4fb1871cea89ea02a2646970667358221220b2d975e613039f00b28c5aa7758d698c932c177e98711cc4cb17291f3332e28964736f6c634300081a0033",
    "linkReferences": {}
  },
  "methodIdentifiers": {
    "accountId()": "9cfd7cff",
    "entryPoint()": "b0d691fe",
    "execute(bytes32,bytes)": "e9ae5c53",
    "executeFromExecutor(bytes32,bytes)": "d691c964",
    "executeUserOp((address,uint256,bytes,bytes,bytes32,uint256,bytes32,bytes,bytes))": "72aea654",
    "getActiveFallbackHandler()": "8acf4c6a",
    "getActiveHook()": "0a664dba",
    "getExecutorsPaginated(address,uint256)": "ea5f61d0",
    "getValidatorPaginated(address,uint256)": "85571368",
    "initializeAccount(bytes)": "4b6a1419",
    "installModule(uint256,address,bytes)": "9517e29f",
    "isModuleInstalled(uint256,address,bytes)": "112d3a7d",
    "isValidSignature(bytes32,bytes)": "1626ba7e",
    "supportsAccountMode(bytes32)": "4f55535c",
    "supportsModule(uint256)": "f2dc691d",
    "uninstallModule(uint256,address,bytes)": "a71763a8",
    "validateUserOp((address,uint256,bytes,bytes,bytes32,uint256,bytes32,bytes,bytes),bytes32,uint256)": "19822f7c"
  },
  "id": 57
}